:020000040800F2
:10000000982E0020F5010008A92900080D260008F7
:10001000A52900087D030008894E000800000000A3
:100020000000000000000000000000005D0100086A
:10003000FD03000800000000A1010008512E000887
:100040000F0200080F0200080F0200080F0200084C
:100050000F0200080F0200080F0200080F0200083C
:100060000F0200080F0200080F0200080F0200082C
:100070000F0200080F020008ED030008AD0400089D
:100080000F0200080F0200080F0200080F0200080C
:10009000F14D00080F0200080F0200080F020008CF
:1000A0000F0200085D2F00080F0200080F02000871
:1000B0000F0200080F0200080F0200080F020008DC
:1000C0000F0200080F0200080F0200080F020008CC
:1000D0000F0200080F0200080F0200080F020008BC
:1000E0000F0200080F0200080F0200080F020008AC
:1000F0000F0200080F0200080F0200080F0200089C
:100100000F0200080F0200080F0200080F0200088B
:100110000F0200080F0200080F0200080F0200087B
:100120000F0200080F020008BD040008CD040008FB
:10013000DFF80CD000F0D6F800480047D959000885
:10014000982E00204FF0000383F3148882F3088870
:10015000BFF34F8FBFF36F8F084700BF224B196863
:100160000868B0E8F00F80F30988BFF36F8F4FF095
:10017000000080F311884EF00D0E70470000000063
:1001800006480068006880F3088862B661B6BFF36D
:100190004F8FBFF36F8F00DF00BF00BF08ED00E09F
:1001A000EFF30980BFF36F8F0F4B1A6820E9F00F50
:1001B000106008B54FF0500080F31188BFF34F8FE7
:1001C000BFF36F8F06F036F94FF0000080F311880F
:1001D000BDE8084019680868B0E8F00F80F30988A6
:1001E000BFF36F8F704700BFAC000020EFF30580B6
:1001F000704700000648804706480047FEE7FEE7D4
:10020000FEE7FEE7FEE7FEE7FEE7FEE7FEE7FEE7C6
:10021000052F000831010008202A04DB203A21FACA
:1002200002F00021704721FA02F3D040C2F120020F
:10023000914008431946704740EA01039B0703D0E9
:1002400009E008C9121F08C0042AFAD203E011F815
:10025000013B00F8013B521EF9D27047D2B201E0D7
:1002600000F8012B491EFBD270470022F6E710B5BB
:1002700013460A4604461946FFF7F0FF204610BD14
:100280002DE9F05F0546002092469B4688460646CB
:10029000814640241BE02846414647462246FFF758
:1002A000BBFF53465A46C01A914110D31146184617
:1002B000224600F029F82D1A67EB01084F46224626
:1002C0000120002100F020F817EB00094E41201E0C
:1002D000A4F10104DFDC484631462A464346BDE826
:1002E000F09F0000064C074D06E0E06840F0010377
:1002F00094E8070098471034AC42F6D3FFF71CFF90
:10030000306A0008506A0008202A04DB203A00FA0C
:1003100002F1002070479140C2F1200320FA03F35C
:1003200019439040704770B58C1810F8015B15F0B8
:10033000070301D110F8013B2A1106D110F8012B57
:1003400003E010F8016B01F8016B5B1EF9D12B077C
:1003500005D40023521E0DD401F8013BFAE710F832
:10036000013BCB1A921C03E013F8015B01F8015B1F
:10037000521EF9D5A142D8D3002070BD00BFFEE7C0
:100380000346042B15D007DC7BB1012B0ED0022BCA
:100390000DD0032B12D10BE0202B0BD0212B0AD038
:1003A000222B09D0232B09D107E008E007E006E063
:1003B00005E004E003E002E001E000E000BF00BF70
:1003C000002070470020704710B5002204490548FE
:1003D00002F0FAFF0449034802F0EFFF002010BDCD
:1003E00020130020140B0020380F002010B5024805
:1003F00000F032F910BD0000700300207047704714
:100400002143658770B504460D462046296804F0EF
:10041000CDFF2146034802F0D0FF024802F0A9FFB9
:10042000002070BD140B00202DE9F04104460D465C
:1004300000260A48D0F81872D7F8140210B101202B
:10044000BDE8F0812A462146044802F0BDFF03487A
:1004500003F00CF806463046F2E70000140B0020CB
:100460000748006840F08070054908600020054991
:1004700048600846006840F00100086070470000CE
:10048000FCED00E0001000E004480549086002208F
:1004900004490860202004494860704701000001B9
:1004A000FCED00E0F00004E0002004E010B502489C
:1004B00000F0D2F810BD00002C03002010B5024857
:1004C00000F0CAF810BD0000A402002010B50248D8
:1004D00000F0C2F810BD0000E80200200021044A2C
:1004E000516000BF024949688142FBD37047000058
:1004F000001000E00021074AD1610749096941F075
:100500000401054A11611146096941F04001116178
:1005100070470000881D0020002002400021074A8B
:10052000D1610749096941F00201054A116111468B
:100530004861096941F0400111617047881D002040
:10054000002002400022054BDA61054A126942F0A0
:100550000102034B1A61018070470000881D0020D2
:100560000020024000201E49C96801F0100139B185
:100570001C49C96941F002011A4AD16140F01000DA
:100580001749C96801F0040139B11649C96941F038
:100590000101144AD16140F004001149C96901F018
:1005A000010169B10F49C96941F004010D4AD161E6
:1005B00000BF0B49C96921F00101094AD16100BF9F
:1005C00000BF40F20111884206D10549C96921F0F6
:1005D0000101034AD16101E00149C86000BF7047D1
:1005E00000200240881D002070B5044600F0D0FCB9
:1005F000054609E0601C38B124B100F0C9FC401B7D
:10060000A04201D9032070BD1248C06800F001006B
:100610000028EFD10F48C06800F0200020B100BFD3
:1006200020200C49C86000BF0A48C06800F01000D4
:1006300048B90848C06900F0010020B90548C06801
:1006400000F0040018B1FFF78DFF0120DBE7002068
:10065000D9E700000020024070B50446E06B056851
:100660002068066894F8401004208840284000283C
:1006700075D006F004000028FAD02068006800F069
:10068000200028B92068006820F004002168086074
:10069000D5492068884254D9D3497839206888429E
:1006A00001D1042049E0D04964392068884201D151
:1006B000402042E0CC4950392068884201D10015E1
:1006C0003BE0C9493C392068884202D14FF4804060
:1006D00033E0C54928392068884202D14FF4802090
:1006E0002BE0C14914392068884202D14FF48000C0
:1006F00023E0BD492068884201D1C0041DE0BB4908
:100700002068884201D1042017E0B84914312068DC
:10071000884201D1402010E0B44928312068884245
:1007200001D1001509E0B1493C312068884202D16D
:100730004FF4804001E04FF48020AC49091F08606D
:1007400054E0A94978392068884201D104204AE060
:10075000A54964392068884202D1402043E04CE03A
:10076000A14950392068884201D100153BE09E49DB
:100770003C392068884202D14FF4804033E09A49E6
:1007800028392068884202D14FF480202BE0964916
:1007900014392068884202D14FF4800023E0924946
:1007A0002068884201D1C0041DE090492068884239
:1007B00001D1042017E08D4914312068884201D10D
:1007C000402010E0894928312068884201D1001575
:1007D00009E086493C312068884202D14FF48040CC
:1007E00001E04FF48020804980394860E06A0028A9
:1007F00002D02046E16A8847F4E094F840100220D5
:1008000088402840002871D006F002000028FAD065
:100810002068006800F0200040B92068006820F0DF
:100820000A0021680860012084F821006E492068D0
:10083000884254D96C4978392068884201D1022015
:1008400049E0694964392068884201D1202042E0AA
:10085000654950392068884201D140153BE0624922
:100860003C392068884202D14FF4005033E05E49A1
:1008700028392068884202D14FF400302BE05A49D1
:1008800014392068884202D14FF4001023E0564901
:100890002068884201D180041DE0544920688842C4
:1008A00001D1022017E0514914312068884201D15A
:1008B000202010E04D4928312068884201D14015A0
:1008C00009E04A493C312068884202D14FF4005087
:1008D00001E04FF400304549091F086054E04249E7
:1008E00078392068884202D102204AE057E03E4928
:1008F00064392068884201D1202042E03A495039C9
:100900002068884201D140153BE037493C392068D6
:10091000884202D14FF4005033E03349283920682F
:10092000884202D14FF400302BE02F49143920685F
:10093000884202D14FF4001023E02B4920688842FE
:1009400001D180041DE029492068884201D102209C
:1009500017E0264914312068884201D1202010E098
:10096000224928312068884201D1401509E01F49F9
:100970003C312068884202D14FF4005001E04FF42E
:10098000003019498039486000BF002084F82000F9
:1009900000BFA06A30B32046A16A884722E094F8DD
:1009A0004010082088402840E0B106F00800C8B197
:1009B0002068006820F00E002168086094F840105C
:1009C00001208840E16B48600120A06384F8210089
:1009D00000BF002084F8200000BF206B10B120462B
:1009E000216B884770BD000080000240080402406F
:1009F0000146002209B9012070471E4B0868984241
:100A00000BD21D4B0868C01A1423B0FBF3F0800012
:100A1000086419480838C8630AE0164B0868C01A09
:100A20001423B0FBF3F08000086412480838C86350
:100A3000022081F821000868026843F6F0708243C2
:100A4000D1E901031843CB6818430B6918434B697C
:100A500018438B691843CB69184302430868026046
:100A600000208863012081F82100002081F8200007
:100A700000BFC1E708040240080002402DE9F04130
:100A800004460E460127002500BF2A48007E0128A3
:100A900002D10220BDE8F08101202649087600BF7E
:100AA0002068022814D14CF25030FFF79DFD002839
:100AB00038D10120FFF71EFD4CF25030FFF794FDB6
:100AC00007461D48006920F004001B49086129E021
:100AD0004CF25030FFF788FD002823D1401E3060D3
:100AE000A56818E02846FFF719FD00BF294613A0A6
:100AF00004F0CCF900BF4CF25030FFF775FD07460B
:100B00000D48006920F002000B4908610FB1356003
:100B100007E005F50065D4E9021001EBC020A8420A
:100B2000E0D800BF00BF00200249087600BF384669
:100B3000B0E70000881D002000200240466C617371
:100B40006820706167652066726F6D2061646472F1
:100B5000657373203078253878206572617365205D
:100B6000636F6D706C65746564210D0A0000000090
:100B70002DE9FE4F05468B46174698460126002470
:100B80000020029000BF2448007E012802D10220EC
:100B9000BDE8FE8F01202049087600BF4CF250309E
:100BA000FFF722FD064686BB012D02D101200290EF
:100BB00006E0022D02D10220029001E00420029002
:100BC00000241EE02201B946C24648465146FFF7BE
:100BD00023FB80B20190022000FB04B00090019939
:100BE000FFF7B0FC4CF25030FFF7FEFC06460B4816
:100BF000006920F001000949086106B104E0601CA9
:100C0000C4B202988442DDDB00BF00BF002002496D
:100C1000087600BF3046BBE7881D00200020024058
:100C200000200849096901F0800151B10649054ACF
:100C30005160064951601146096901F0800101B116
:100C4000012070470020024023016745AB89EFCDAA
:100C50002DE9F8470246002400200025844600279D
:100C600000237BE14FF0010808FA03F4D1F800807B
:100C700008EA0400A0427DD1DFF8ECA2D1F804809C
:100C8000A8EB0A09D0453AD014DCB8F1030F50D0D4
:100C900009DCB8F1000F31D0B8F1010F1CD0B8F168
:100CA000020F49D120E0B8F1110F18D0B8F1120F9E
:100CB00042D11EE0B9F5881F25D006DCB9F5803F8A
:100CC00020D0B9F5801F37D11AE0B9F5001F18D030
:100CD000B9F5041F30D117E0D1F80CC02DE0D1F8E0
:100CE0000C8008F1040C28E0D1F80C8008F1080C05
:100CF00023E0D1F80C8008F10C0C1EE000BF00BF0F
:100D000000BF00BF00BF00BFD1F80880B8F1000FDE
:100D100002D14FF0040C0BE0D1F80880B8F1010FBC
:100D200003D14FF0080C146102E04FF0080C54613D
:100D300003E04FF0000C00E000BF00BFFF2801D827
:100D4000904601E002F104084646FF2802D84FEA27
:100D5000830803E0A3F108084FEA88084746D6F85D
:100D600000804FF00F0909FA07F928EA09080CFA80
:100D700007F900E07AE048EA0908C6F80080D1F8EF
:100D8000048008F08058B8F1805F6FD100BFDFF8B1
:100D9000DC81D8F8188048F00108DFF8D091C9F854
:100DA0001880C846D8F8188008F00108CDF80080EF
:100DB00000BF00BF4FEAB9384FEA930958F82950ED
:100DC0004FEA83784FEA18794FF00F0808FA09F8CC
:100DD00025EA0805DFF89881424502D14FF0000866
:100DE00024E0DFF89081424502D14FF001081DE078
:100DF000DFF88481424502D14FF0020816E0DFF8A7
:100E00007C81424502D14FF003080FE0DFF870818A
:100E1000424502D14FF0040808E0DFF868814245FE
:100E200002D14FF0050801E04FF006084FEA837940
:100E30004FEA197908FA09F848EA0505DFF8488108
:100E40004FEA930948F82950D1F8048008F4803813
:100E5000B8F5803F0BD1DFF83481D8F8008048EA3C
:100E60000008DFF82891C9F800800AE075E0DFF893
:100E70001C81D8F8008028EA0008DFF81091C9F832
:100E80000080D1F8048008F40038B8F5003F0ED196
:100E9000DFF8F88008F10408D8F8008048EA000874
:100EA000DFF8E89009F10409C9F800800DE0DFF8E7
:100EB000DC8008F10408D8F8008028EA0008DFF890
:100EC000CC9009F10409C9F80080D1F8048008F435
:100ED0008018B8F5801F0ED1DFF8B08008F108083F
:100EE000D8F8008048EA0008DFF8A09009F1080966
:100EF000C9F800800DE0DFF8948008F10808D8F800
:100F0000008028EA0008DFF8849009F10809C9F890
:100F10000080D1F8048008F40018B8F5001F0ED145
:100F2000DFF8688008F10C08D8F8008048EA00086B
:100F3000DFF8589009F10C09C9F800800DE0DFF8DE
:100F40004C8008F10C08D8F8008028EA0008DFF887
:100F50003C9009F10C09C9F800805B1C102BFFF4D0
:100F600081AEBDE8F88700000000111000100240BB
:100F700000080140000C0140001001400014014035
:100F800000180140001C014008000140000401401D
:100F900001480068704700009C000020034800687A
:100FA0000349097808440149086070479C00002003
:100FB000A400002010B50848006840F01000064961
:100FC0000860032000F0E6F8002000F007F800F0C9
:100FD00049F8002010BD00000020024070B588B024
:100FE00004460025002600222146192000F093F82F
:100FF000192000F083F800BF1648806940F40060B3
:10100000144988610846806900F40060019000BFBF
:1010100000BF02A903A800F019FE00F04FFE05462C
:101020000D48B5FBF0F0461E0C480D49086040F233
:10103000E7310B48C160466000210161816001F029
:10104000BBF820B9064801F0D2F808B070BD012005
:10105000FBE700000010024040420F00002C01405E
:101060005C0A002008B500BF2248806940F00100FA
:10107000204988610846806900F00100009000BFA7
:1010800000BF00BF0846C06940F08050C8610846F4
:10109000C06900F08050009000BF00BF0022052111
:1010A0006FF00B0000F037F8002205216FF00A0006
:1010B00000F031F8002205216FF0090000F02BF854
:1010C00000220421501F00F026F800220521101FE5
:1010D00000F021F800220F21901E00F01CF800BF44
:1010E0000549486820F0E06040F08070486000BF2B
:1010F00008BD0000001002400000014000BF00F0E9
:101100001F02012191404209920002F1E022C2F83F
:10111000001100BF70472DE9F05F80460D4616466E
:10112000002701F043FC074639462A46334601F0C2
:101130000700C0F1070ABAF1040F02D94FF0040A00
:1011400001E0C0F1070AD14600F1040ABAF1070F25
:1011500002D24FF0000A01E0A0F1030AD4464FF09A
:10116000010A0AFA09FAAAF1010A0AEA020A0AFAC3
:101170000CFA4FF0010B0BFA0CFBABF1010B0BEA75
:10118000030B4AEA0B042146404601F017FCBDE878
:10119000F09F000000BF00F00702064B19684FF6F1
:1011A000FF031940044B0B4343EA0221014B196032
:1011B00000BF70470CED00E00000FA0570B5054671
:1011C0000C46002104F08000802806D104F07F0640
:1011D00005F1280000EB461103E005F50A7000EB6D
:1011E00044111AB9002088728B8004E001208872B3
:1011F000CB80180C0881002070BD704770B5044684
:101200000D4604F1280101EB45114A692946D4F83D
:101210005C0402F009FC70BD70B504460D4604F58F
:101220000A7101EB45114A692946D4F85C0402F0C1
:1012300068FC70BD70B504460D46002605F08000C0
:10124000802806D105F07F0104F1280000EB41164B
:1012500005E005F07F0104F50A7000EB411605F08A
:101260007F00307005F08000C009707000BF94F8F6
:101270002804012801D1022070BD012084F828042F
:1012800000BF3146206803F044FA00BF002084F814
:10129000280400BF00BFEFE770B504460D460026E6
:1012A00005F08000802806D105F07F0104F12800B8
:1012B00000EB411603E004F50A7000EB4516002030
:1012C000B07005F07F003070C5F3C010707000BFC3
:1012D00094F82804012801D1022070BD012084F86F
:1012E000280400BF3146206803F040FB00BF002007
:1012F00084F8280400BF00BFEFE7024601F00F03A7
:1013000002F50A7000EB4310808B80B270472DE924
:10131000F04704460D46174698464FF00009002650
:1013200005F08000802806D105F07F0104F1280037
:1013300000EB411605E005F07F0104F50A7000EBB3
:10134000411605F07F00307005F08000C009707014
:10135000376186F8038000BF94F82804012802D181
:101360000220BDE8F087012084F8280400BF314640
:10137000206802F0F5FF00BF002084F8280400BFB9
:101380004846EEE72DE9F04105460E4617469846D9
:10139000002406F07F0105F50A7000EB4114676137
:1013A000C4F818800020E061607006F07F002070B3
:1013B00006F07F0020B92146286803F074FB03E0A3
:1013C0002146286803F06FFB0020BDE8F08170B56E
:1013D00004460D46002605F08000802806D105F061
:1013E0007F0104F1280000EB411603E004F50A70C8
:1013F00000EB45160120B07005F07F003070C5F39A
:10140000C010707000BF94F82804012801D1022098
:1014100070BD012084F8280400BF3146206803F025
:10142000FFFA05F07F0020B904F22C41206803F098
:101430009AFA00BF002084F8280400BF00BFE7E745
:101440002DE9F04105460E4617469846002406F061
:101450007F0105F1280000EB41146761C4F8188092
:101460000020E0610120607006F07F00207006F02F
:101470007F0020B92146286803F015FB03E02146D0
:10148000286803F010FB0020BDE8F08110B5044689
:10149000206803F0B5FC00F40040B0F5004F02D125
:1014A000204601F09FFA206803F0AAFC00F4806057
:1014B000B0F5806F0ED12068B0F8440020F4806051
:1014C0002168A1F84400204600F044F9002120469C
:1014D00000F063F9206803F093FC00F48040B0F55D
:1014E000804F07D12068B0F8440020F48040216884
:1014F000A1F84400206803F083FC00F40050B0F52C
:10150000005F07D12068B0F8440020F40050216843
:10151000A1F84400206803F073FC00F48050B0F59B
:10152000805F1AD12068B0F8400020F004002168E4
:10153000A1F840002068B0F8400020F008002168C1
:10154000A1F84000204600F01AF92068B0F84400E5
:1015500020F480502168A1F84400206803F050FC7A
:1015600000F40060B0F5006F20D12068B0F84000B2
:1015700040F008002168A1F840002068B0F844005D
:1015800020F400602168A1F844002068B0F8400011
:1015900040F004002168A1F84000206803F030FC0E
:1015A000C0F3003010B9204600F03AF9206803F08B
:1015B00027FC00F40070B0F5007F0AD12068B0F875
:1015C000440020F400702168A1F84400204600F097
:1015D000DDF8206803F014FC00F48070B0F5807F23
:1015E00007D12068B0F8440020F480702168A1F889
:1015F000440010BD30B585B00446002514B9012063
:1016000005B030BD94F8290428B9002084F82804D6
:10161000204600F07DF8032084F82904206803F0B8
:1016200097F9142204F110016846FEF705FE94E8CC
:101630000F0003F06AF80021206803F0FAFB002590
:1016400025E0012104F1280000EB4510417004F170
:10165000280000EB4510057004F1280000EB451050
:101660008581002104F1280000EB4510C17004F1D0
:10167000280000EB4510016104F1280000EB451043
:10168000416104F1280000EB451081616D1C0F2DB4
:10169000D7D3002524E0002104F50A7000EB4510A3
:1016A000417004F50A7000EB4510057004F1280044
:1016B00000EB4510858104F50A7000EB4510C17000
:1016C00004F50A7000EB4510016104F50A7000EBA7
:1016D0004510416104F50A7000EB451081616D1CF5
:1016E0000F2DD8D3142204F110016846FEF7A4FD93
:1016F00094E80F0003F01DF9002084F82400012075
:1017000084F82904206803F011F9002078E700002C
:1017100038B504460D492068884215D100BF0C48F1
:10172000C06940F400000A49C8610846C06900F475
:101730000000009000BF00BF002205211420FFF729
:10174000EAFC1420FFF7DAFC38BD0000005C004022
:101750000010024070B504460125A068022801D19E
:1017600000BF01E0012500BF00BF2946D4F85C049A
:1017700002F00CFBD4F85C0402F0CEFA70BD10B598
:101780000446D4F85C0402F0E9FA10BD10B5044632
:10179000D4F85C0402F0E9FA10BD70B504460D46B9
:1017A00000BF94F82804012801D1022070BD012057
:1017B00084F8280400BF84F824502946206803F0E8
:1017C0003BFB00BF002084F8280400BF00BFEDE70A
:1017D00010B5044604F22C41D4F85C0402F0FCFA83
:1017E00010BD10B5044600BF94F82804012801D1AB
:1017F000022010BD012084F8280400BF01212046EA
:10180000FFF7FBFC206803F08EF8206803F0E4FA91
:1018100000BF002084F8280400BF00BFE9E70000F3
:1018200010B50446D4F85C0402F04DFBA06928B161
:101830000348006840F006000149086010BD000040
:1018400010ED00E0F8B5044600260025207800F0F1
:10185000010000286BD000274348C06900F0805089
:1018600070B900BF4048C06940F080503E49C8612F
:101870000846C06900F08050009000BF00BF0127FB
:101880003A48006800F48070B0B93848006840F405
:10189000807036490860FFF77BFB064606E0FFF7DD
:1018A00077FB801B642801D90320F8BD2F4800680E
:1018B00000F480700028F2D02B48006A00F44075D4
:1018C0002DB3A08800F44070A84220D02648006ABA
:1018D00020F4407501202649086000200860224855
:1018E000056205F0010090B1FFF752FB064608E0E3
:1018F000FFF74EFB801B41F28831884201D903205B
:10190000D3E71948006A00F002000028F0D016481A
:10191000006A20F440706168084313490862012F8F
:1019200004D10846C06920F08050C86100BF20780B
:1019300000F00200022807D10B48406820F4404024
:10194000A168084308494860207800F0100010287A
:1019500007D10548406820F48000616908430249C6
:1019600048600020A1E70000001002400070004025
:101970004004424270B504460D4600266D4800689A
:1019800000F00700A8420ED26A48006820F0070065
:101990002843684908600846006800F00700A8422C
:1019A00001D0012070BD207800F0020002281DD176
:1019B000207800F00400042805D15F48406840F416
:1019C000E0605D494860207800F00800082805D1F3
:1019D0005948406840F4605057494860564840684C
:1019E00020F0F000A168084353494860207800F0D7
:1019F000010000285DD06068012806D14E480068CB
:101A000000F4003090B90120CCE76068022806D1CC
:101A10004948006800F0007040B90120C2E746481C
:101A2000006800F0020008B90120BBE742484068A6
:101A300020F00300616808433F494860FFF7A8FAB7
:101A400006466068012810D108E0FFF7A1FA801B64
:101A500041F28831884201D90320A3E73648406823
:101A600000F00C000428F0D123E06068022810D1B7
:101A700008E0FFF78DFA801B41F28831884201D9D6
:101A800003208FE72C48406800F00C000828F0D1B4
:101A90000FE008E0FFF77CFA801B41F288318842B2
:101AA00001D903207EE72448406800F00C0000289C
:101AB000F0D12048006800F00700A8420ED91D4868
:101AC000006820F0070028431A49086008460068AB
:101AD00000F00700A84201D0012063E7207800F061
:101AE0000400042807D11448406820F4E060E1684D
:101AF000084311494860207800F00800082808D100
:101B00000D48406820F46050216940EAC1000A494C
:101B1000486000F0E3F808494968C1F30311074A37
:101B2000515CC840064908600020FFF757FA0020C2
:101B300038E7000000200240001002400C6A000854
:101B4000A800002010B5FFF723FA04463C480068BF
:101B500040F001003A49086006E0FFF719FA001B5F
:101B6000022801D9032010BD3548006800F00200AA
:101B70000028F2D03248006820F0F80040F08000E1
:101B80002F490860FFF704FA044600202C494860FA
:101B900008E0FFF7FDF9001B41F28831884201D9C6
:101BA0000320E0E72648406800F00C000028F0D150
:101BB0002448254908600020FFF710FA08B10120E9
:101BC000D1E7FFF7E5F904461D48006820F0807072
:101BD0001B49086006E0FFF7DBF9001B022801D96A
:101BE0000320C0E71648006800F000700028F2D11A
:101BF00013494860FFF7CCF904461148006820F407
:101C000010200F49086006E0FFF7C2F9001B6428A6
:101C100001D90320A7E70A48006800F40030002833
:101C2000F2D10748006820F4802005490860084682
:101C3000406A40F0807048620020886000BF92E7F0
:101C40000010024000127A00A80000200F2202605B
:101C50000D4A526802F0030242600B4A526802F0D9
:101C6000F0028260084A526802F4E062C260064AEA
:101C7000526802F46052D2080261044A126802F00B
:101C800007020A6070470000001002400020024076
:101C90000148006870470000A800002000B5FFF769
:101CA000F7FF04494968C1F30221034A515CC84067
:101CB00000BD0000001002401C6A000800B5FFF7DC
:101CC000E7FF04494968C1F3C221034A515CC84097
:101CD00000BD0000001002401C6A0008F0B585B08D
:101CE0000FF26C0C9CE8E01001A8A0E8E0101CA525
:101CF0002D68009500210022002300240020194DAA
:101D0000696801F00C05F5B1042D02D0082D19D138
:101D100001E0154819E001ADC1F38346AC5D01F463
:101D2000803555B10F4D6D68C5F340451DF8052050
:101D30000D4D6543B5FBF2F302E00C4D04FB05F3DA
:101D4000184602E000BF0A4800BF00BF05B0F0BD62
:101D500002030405060708090A0B0C0D0E0F1010EC
:101D60000102000000100240001BB70000093D0006
:101D700000127A00F8B504460025207800F0010032
:101D8000002878D0F848406800F00C0004280CD0F7
:101D9000F548406800F00C00082811D1F24840686E
:101DA00000F48030B0F5803F0AD1EF48006800F4BD
:101DB000003000285FD0606800285CD10120F8BDA9
:101DC00000BF6068B0F5803F06D1E748006840F486
:101DD0008030E549086028E0606858B9E24800684A
:101DE00020F48030E04908600846006820F4802034
:101DF00008601AE06068B0F5A02F0BD1DA480068DF
:101E000040F48020D84908600846006840F48030DB
:101E100008600AE0D448006820F48030D2490860A5
:101E20000846006820F48020086000BF606888B120
:101E3000FFF7AEF8054606E0FFF7AAF8401B642856
:101E400001D90320BBE7C848006800F4003000282F
:101E5000F2D010E0FFF79CF8054606E0FFF798F88F
:101E6000401B642801D90320A9E7BF48006800F49B
:101E700000300028F2D1207800F00200022857D16B
:101E8000B948406800F00C0050B1B748406800F015
:101E90000C00082818D1B448406800F4803098B984
:101EA000B148006800F0020020B12069012801D08B
:101EB000012084E7AC48006820F0F800616940EA3E
:101EC000C100A949086033E02069E8B10120A749B1
:101ED0000860FFF75DF8054606E0FFF759F8401B7C
:101EE000022801D903206AE79F48006800F0020039
:101EF0000028F2D09C48006820F0F800616940EAB0
:101F0000C1009949086013E0002098490860FFF774
:101F10003FF8054606E0FFF73BF8401B022801D9D1
:101F200003204CE79048006800F002000028F2D13E
:101F3000207800F0080008282DD1A069B8B1012050
:101F40008B490860FFF724F8054606E0FFF720F804
:101F5000401B022801D9032031E78348406A00F082
:101F600002000028F2D0012000F05EFF13E0002004
:101F70007F490860FFF70CF8054606E0FFF708F810
:101F8000401B022801D9032019E77748406A00F076
:101F900002000028F2D1207800F00400042873D158
:101FA00000267148C06900F0805070B900BF6E48CB
:101FB000C06940F080506C49C8610846C06900F0B3
:101FC0008050009000BF00BF01266A48006800F4FE
:101FD0008070B0B96748006840F480706549086057
:101FE000FEF7D6FF054606E0FEF7D2FF401B642849
:101FF00001D90320E3E65F48006800F48070002800
:10200000F2D000BFE068012806D15748006A40F0CE
:1020100001005549086227E0E06858B95248006A53
:1020200020F00100504908620846006A20F00400D0
:10203000086219E0E06805280BD14B48006A40F0BF
:102040000400494908620846006A40F0010008623D
:102050000AE04548006A20F001004349086208464A
:10206000006A20F00400086200BFE068A0B1FEF73B
:102070008FFF054609E0FEF78BFF401B41F28831D8
:10208000884202D903209AE622E03748006A00F02D
:1020900002000028EFD012E0FEF77AFF054608E0C4
:1020A000FEF776FF401B41F28831884201D90320B8
:1020B00085E62D48006A00F002000028F0D1012ECC
:1020C00005D12948C06920F080502749C86100BF68
:1020D000E069C8B32448406800F00C00082860D0CC
:1020E000E069022848D1002020490866FEF750FF29
:1020F000054606E0FEF74CFF401B022801D90320ED
:102100005DE61948006800F000700028F2D1206AEE
:10211000B0F5803F07D11448406820F40030A16832
:10212000084311494860D4E9080108430E49496849
:1021300021F4741108430C49486001200B490866DA
:10214000FEF726FF054607E02DE0FEF721FF401BC6
:10215000022801D9032032E60348006800F000702D
:102160000028F2D01FE000000010024000004242B0
:10217000800442420070004000200C490866FEF7CF
:1021800007FF054606E0FEF703FF401B022801D9C2
:10219000032014E60648006800F000700028F2D121
:1021A00001E001200BE6002009E6000000004242A9
:1021B000001002407047704710B504460CB901206A
:1021C00010BD94F83D0028B9002084F83C0020465A
:1021D00000F00CF8022084F83D00211D206800F07A
:1021E000C5FE012084F83D000020E9E77047014664
:1021F0000868C06840F001000A68D060086800689C
:1022000040F001000A68106000207047704710B568
:10221000044620680069C0F34000D8B12068C06857
:10222000C0F34000B0B16FF00200216808610120E6
:1022300020772068806900F0030018B12046FFF77E
:10224000E5FF05E0204600F0ADF8204600F0ABF8D1
:102250000020207720680069C0F38000D8B1206892
:10226000C068C0F38000B0B16FF00400216808615D
:10227000022020772068806900F4407018B1204661
:10228000FFF7C4FF05E0204600F08CF8204600F080
:102290008AF80020207720680069C0F3C000D8B118
:1022A0002068C068C0F3C000B0B16FF008002168BA
:1022B0000861042020772068C06900F0030018B18D
:1022C0002046FFF7A3FF05E0204600F06BF820460C
:1022D00000F069F80020207720680069C0F3001042
:1022E000D8B12068C068C0F30010B0B16FF0100022
:1022F00021680861082020772068C06900F44070D8
:1023000018B12046FFF782FF05E0204600F04AF8AA
:10231000204600F048F8002020772068006900F08F
:10232000010058B12068C06800F0010030B16FF0C2
:10233000010021680861204600F036F82068006935
:10234000C0F3C01058B12068C068C0F3C01030B1ED
:102350006FF08000216808612046FFF72BFF20689E
:102360000069C0F3801058B12068C068C0F38010C5
:1023700030B16FF0400021680861204600F020F87D
:1023800020680069C0F3401058B12068C068C0F3ED
:10239000401030B16FF02000216808612046FFF73F
:1023A0000AFF10BD7047704710B504460349206806
:1023B000884201D1FEF7F2FD10BD0000002C014063
:1023C000704710B504460CB9012010BDA06900B1DA
:1023D00000E000BF94F8390028B9002084F83800E4
:1023E000204600F027F8242084F839002068C068CF
:1023F00020F400502168C860204600F003FE2068E9
:10240000006920F49040216808612068406920F04C
:102410002A00216848612068C06840F400502168A3
:10242000C8600020E063202084F8390084F83A0076
:102430000020CAE710B586B0044600200290039041
:102440000490059066492068884261D100BF6548C4
:10245000C06940F400206349C8610846C06900F4BF
:102460000020019000BF00BF00BF0846806940F017
:10247000100088610846806900F01000019000BFDC
:1024800000BF08150290022003900320059002A9C6
:102490005548FEF7DDFB4FF40060029000200390EA
:1024A000049002A95048FEF7D3FB504850490860F9
:1024B0000020486000214E4881608021C1600021D9
:1024C000016141618161C161FEF792FA08B1FDF7D6
:1024D00096FF00BF46486063446200BF434828300F
:1024E00044490860102048600021424881608021F2
:1024F000C1600021016141618161C161FEF778FA2B
:1025000008B1FDF77CFF00BF3A482063446265E0F4
:1025100039492068884261D100BF3248806940F45F
:102520008040304988610846806900F4804001900D
:1025300000BF00BF00BF0846806940F0040088610A
:102540000846806900F00400019000BF00BF4815F4
:102550000290022003900320059002A92748FEF76D
:1025600077FB4FF48060029000200390049002A952
:102570002248FEF76DFB224822490860002048608F
:102580000021204881608021C160002101614161FA
:102590008161C161FEF72CFA08B1FDF730FF00BF81
:1025A00018486063446200BF154814381649086033
:1025B000102048600021144881608021C160002102
:1025C000016141618161C161FEF712FA08B1FDF755
:1025D00016FF00BF0C482063446200BF06B010BD68
:1025E000004C004000100240001001403004024046
:1025F000A4020020E8020020003801400008014049
:10260000580002402C0300207003002000BFFEE7AA
:1026100008B500BF1D48406940F001001B494861F2
:102620000846406900F00100009000BF00BF00BFF5
:102630000846406940F0020048610846406900F0E1
:102640000200009000BF00BF002205210E20FEF70F
:1026500062FD0E20FEF752FD002205210F20FEF73D
:102660005AFD0F20FEF74AFD002205213A20FEF711
:1026700052FD3A20FEF742FD002205213B20FEF7E5
:102680004AFD3B20FEF73AFD08BD00000010024065
:1026900000B585B00020019002900390049000BF27
:1026A0008F48806940F040008D4988610846806904
:1026B00000F04000009000BF00BF00BF08468069E6
:1026C00040F0100088610846806900F0100000901A
:1026D00000BF00BF00BF0846806940F00400886169
:1026E0000846806900F00400009000BF00BF00BFF2
:1026F0000846806940F0080088610846806900F05B
:102700000800009000BF00BF00BF0846806940F08D
:10271000200088610846806900F02000009000BF1A
:1027200000BF4FF6FF706F4908606F4908606F493E
:1027300048616F4908606F4908604FF480406A49FA
:10274000091F08600120019002900320049001A954
:1027500064481438FEF77CFA0E20019003200290A2
:1027600001A960481438FEF773FA4FF4B66001907F
:1027700000200290039001A95A481438FEF768FA25
:102780004FF410700190022002900320049001A9E0
:1027900054481438FEF75CFA46F2057001900120A7
:1027A00002900320049001A94F481438FEF750FA14
:1027B00049F63200019000200290039001A94A4896
:1027C0001438FEF745FAC020019012200290032031
:1027D000049001A944481438FEF73AFA0720019002
:1027E0000320029001A94148FEF732FAF02001903F
:1027F000012002900320049001A93C48FEF728FA2A
:102800004EF60830019000200290039001A937484D
:10281000FEF71EFA4FF4A050019002200290032010
:10282000049001A93148FEF713FA4FF69B7001900E
:10283000012002900320049001A92D481438FEF7CE
:1028400007FA4420019000200290039001A9284833
:102850001438FEF7FDF92020019002200290032099
:10286000049001A922481438FEF7F2F943200190A0
:102870000020029003900320049001A91D48143801
:10288000FEF7E6F93C20019001200290032004901D
:1028900001A918481438FEF7DBF94FF68070019053
:1028A000012002900320049001A912481438FEF779
:1028B000CFF900BF0A48806940F0010008498861EB
:1028C0000846806900F00100009000BF00BF0A4880
:1028D0000A49486001200349091F086005B000BD8E
:1028E0000010024014080140140C01400010014087
:1028F00014140140141801400800000100000140B8
:1029000010B50B480B4908604FF416504860002181
:1029100008488160C16001610C2141610021816131
:10292000C161FFF74EFD08B1FDF769FD10BD000064
:10293000004C00402402002010B50B480B490860F1
:102940004FF416504860002108488160C160016161
:102950000C21416100218161C161FFF732FD08B1A5
:10296000FDF74DFD10BD000000380140640200205D
:1029700010B500220749084800F0DEFF0749064865
:1029800001F0F0FA0649044800F010FD024801F099
:10299000CFFB10BD58000020140B00201C010020AC
:1029A0008C00002000BFFEE770470000024800686E
:1029B000C0F30220704700000CED00E010B50028C5
:1029C00007DA0A07140E054A00F00F031B1FD45440
:1029D00003E00A07130E024A135410BD18ED00E07D
:1029E00000E400E02DE9FC41054600240027002614
:1029F0000020019000900CE2BDF8040000F00F06EA
:102A0000002E7DD1BDF8040000F0100088BB2868BE
:102A1000008848F60F7108402968088005F12804ED
:102A20002868B0F85010207801EBC000801C29689D
:102A300001F5806131F81000C0F30900E061E1693F
:102A400060690844606100212846FEF7D7FB95F8CD
:102A500024000028CFD0A0690028CCD195F824000C
:102A600040F080002968A1F84C00002085F824007F
:102A7000CFE1FFE705F50A74286800880090BDF8EB
:102A8000000000F4006018B32868B0F850102078F7
:102A900001EBC000801D296801F5806131F810004C
:102AA000C0F30900E061A18B8BB2A28805F22C4132
:102AB000286802F0AAF928680088C0F30E0048F6DA
:102AC0008F710840296808802846FEF781FEA0E142
:102AD000BDF8000000F4004000288CD02868008871
:102AE000C0F30E0048F68F710840296808802868F6
:102AF000B0F85010207801EBC000801D296800E07C
:102B000055E001F5806131F81000C0F30900E06183
:102B1000E06960B1B4F81CC01FFA8CF3A288616947
:102B2000286802F072F9E169606908446061002177
:102B30002846FEF771FB2A6802F580622868B0F823
:102B40005000801D02EB400122693E2A10D9226903
:102B5000C2F34F10227C02F01F020AB9421E90B24B
:102B60004FF6FF7202EA802242F400420A600DE052
:102B70002269C2F34F00227C02F001020AB1421C1A
:102B800090B24FF6FF7202EA80220A602968098833
:102B90004BF68F7201EA020080F4805080F40050FE
:102BA00040F4004141F080012A68118031E1710058
:102BB000286830F811000090BDF8000000F40040D3
:102BC00000287CD07100286830F81100C0F30E0096
:102BD00048F68F7108407200296821F8120005F547
:102BE0000A7000EB4614A07AA8B92868B0F8501013
:102BF000207801EBC000801D296801F5806131F863
:102C00001000C0F30907EFB3A28861693B4628684A
:102C100002F0FBF844E021784900286830F8110000
:102C200000F48040A8B12868B0F85010207801EB7B
:102C3000C000801C296801F5806131F81000C0F3E4
:102C40000907DFB1E28861693B46286802F0DDF8D8
:102C500014E02868B0F85010207801EBC000801D07
:102C6000296801F5806131F81000C0F309072FB120
:102C7000228961693B46286802F0C7F8217849003B
:102C8000286800E00CE030F8110048F68F71084029
:102C900048F2C001084322785200296821F8120046
:102CA000E0693844E061606938446061A06910B14E
:102CB0002069B84204D921782846FEF7ADFA05E02C
:102CC00021782846D4E90523FEF75CFBBDF8000017
:102CD00000F0800000287CD005F1280000EB4614AD
:102CE0007100286830F8110048F60F710840720032
:102CF000296821F81200A07AD0B92868B0F85010DD
:102D0000207801EBC000801C296801F5806131F852
:102D10001000C0F30900E061E069E8B3B4F81CC03A
:102D20001FFA8CF3A2886169286802F08CF84EE0E3
:102D300021784900286830F8110000F04000D0B137
:102D40002868B0F85010207801EBC000801C29687A
:102D500001F5806131F81000C0F30900E061E0691D
:102D600028B3B4F81CC01FFA8CF3E28861692868A4
:102D700002F069F81BE02868B0F85010207801EBE9
:102D8000C000801D296801F5806131F81000C0F392
:102D90000900E061E06900E019E040B1B4F81CC04E
:102DA0001FFA8CF322896169286802F04CF82178B7
:102DB0004900286830F8110048F68F7108404CF23D
:102DC0008001084322785200296821F812002868FF
:102DD00000E01EE0B0F85010207801EBC000801C2D
:102DE000296801F5806131F81000C0F30900E06145
:102DF000E169606908446061A06920B921782846CA
:102E0000FEF7FCF905E021782846D4E90523FEF712
:102E100017FB2868B0F84400019000F40040002837
:102E20007FF4EAADBDE8FC8108B508490968C90826
:102E30004FF47A72B1FBF2F14143009100BF00BF41
:102E400000994A1E00920029F9D108BDA80000206F
:102E500010B500BF502080F31188BFF34F8FBFF330
:102E60006F8F00BF03F09EFC18B14FF080500449F3
:102E7000086000BF002080F3118800BF10BD000073
:102E800004ED00E000B595B028210BA8FDF7EDF9A1
:102E9000142106A8FDF7E9F918216846FDF7E5F9C0
:102EA00001200B9000040C9000200D9001200F9049
:102EB00002201290C1031391C10414910BA8FEF7D4
:102EC00059FF08B1FDF79BFA0F20069002200790EA
:102ED000002008904FF48060099000200A900221A1
:102EE00006A8FEF747FD08B1FDF789FA102000900B
:102EF000002005906846FEF7A5FC08B1FDF77FFAB3
:102F000015B000BD1148006840F001000F4908608D
:102F1000084640680E4908400C4948600846006869
:102F20000C490840094908600846006820F48020E0
:102F300008600846406820F4FE0048604FF41F0017
:102F40008860C80304490860704700000010024010
:102F50000000FFF8FFFFF6FE08ED00E010B50248A4
:102F6000FFF755F910BD00005C0A0020002202683E
:102F70001F4B98420ED01F4B98420BD0B0F1804FA0
:102F800008D01D4B984205D01C4B984202D01C4BD8
:102F9000984203D122F070024B681A43144B9842B6
:102FA0000ED0144B98420BD0B0F1804F08D0124B8A
:102FB000984205D0114B984202D0114B984203D150
:102FC00022F44072CB681A4322F080024B691A4304
:102FD00002608B68C3620B688362054B984202D023
:102FE000044B984201D10B6903630123436170478D
:102FF000002C014000340140000400400008004063
:10300000000C00402DE9F0410446002520680069CD
:1030100020F44050E1680843216808612169A068F4
:1030200008436169084305432068C06841F20C61A8
:10303000884328432168C8602068406920F44070B4
:10304000A1690843216848615F49206888425CD1D2
:10305000FEF734FE00EBC00101EB0010616889004F
:10306000B0FBF1F6FEF72AFE00EBC00101EB001009
:1030700061688900B0FBF1F06421B0FBF1F000EB76
:10308000C00101EB0010A6EB8000322101EB001023
:103090006421B0FBF1F000F0F006FEF70FFE00EB4C
:1030A000C00101EB001061688900B0FBF1F0642100
:1030B000B0FBF1F006EB0016FEF700FE00EBC001DE
:1030C00001EB001061688900B0FBF1F7FEF7F6FD37
:1030D00000EBC00101EB001061688900B0FBF1F06A
:1030E0006421B0FBF1F000EBC00101EB0010A7EB95
:1030F0008000322101EB00106421B0FBF1F000F000
:103100000F003044216888605BE0FEF7C7FD00EBEC
:10311000C00101EB001061688900B0FBF1F6FEF719
:10312000BDFD00EBC00101EB001061688900B0FB40
:10313000F1F06421B0FBF1F000EBC00101EB0010F5
:10314000A6EB8000322101EB00106421B0FBF1F00E
:1031500000F0F006FEF7A2FD00EBC00101EB00104D
:1031600061688900B0FBF1F06421B0FBF1F006EB7F
:103170000016FEF793FD00EBC00101EB0010616843
:103180008900B0FBF1F7FEF789FD00EBC00101EB10
:10319000001061688900B0FBF1F06421B0FBF1F030
:1031A00000EBC00101EB0010A7EB8000322101EB26
:1031B00000106421B0FBF1F000F00F0030442168F2
:1031C0008860BDE8F08100000038014002460B46EF
:1031D000D2F81812D2F8180218B10020C1F814025F
:1031E00070470220FCE770B504460E46D4F818522A
:1031F0003146204600F0C8FCC5F80C02D4F818028D
:1032000048B1D5F80402D4F81C12CA6805F5037158
:103210009047002070BD0220FCE770B504460E46C2
:1032200000258121204600F0DDFB0121204600F031
:10323000D9FB8221204600F0D5FBD4F8180250B10A
:10324000D4F81C1248688047D4F8180201F080F8BE
:103250000020C4F81802284670BD70B50546D5F8A0
:103260001842D5F81C0278B194F80002FF280BD060
:1032700094F8012294F80002D5F81C128B682146BC
:103280009847FF2084F80002002070BD01460A2004
:1032900008800148704700001001002001464320CB
:1032A0000880014870470000980100200146432033
:1032B0000880014870470000540100200146432067
:1032C0000880014870470000DC0100202DE9F04132
:1032D00004460F460026207C70B94FF4007302228A
:1032E0008121204600F0B6FC4FF400730222012138
:1032F000204600F0AFFC0BE0402302228121204653
:1033000000F0A8FC402302220121204600F0A2FC8C
:10331000082303228221204600F09CFC4FF4077012
:1033200001F018F8C4F81802D4F8180208B90126F8
:103330001CE0D4F81852D4F81C120868804700200A
:10334000C5F81402C5F81802207C40B94FF4007388
:1033500001212046D5F8042200F0ADFC06E0402310
:1033600001212046D5F8042200F0A5FC3046BDE836
:10337000F08170B50446D4F81852D4F8180298B108
:10338000207C40B94FF4007301212046D5F8042277
:1033900000F091FC06E0402301212046D5F80422EC
:1033A00000F089FC002070BD0220FCE702460220EC
:1033B00011B1C2F81C12002070470246D2F8183230
:1033C000C3F804120020704710B50346D3F8184222
:1033D000C4F80812C4F81022002010BD70B50546CC
:1033E0000C46D5F81862207800F0600040B3202821
:1033F00035D1E088E0B1207800F0800060B1E2884B
:103400006078D5F81C128B6831469847E2883146BF
:10341000284600F0B9F812E0607886F80002A0793A
:1034200086F80102E2883146284600F08CF806E072
:103430006078D5F81C1200228B68214698470FE06F
:1034400060780A2802D00B2807D105E0012206493E
:10345000284600F099F800E000BF00BF00BF00BFA1
:1034600000BF002070BD00001F02002070B505469F
:10347000D5F81842D5F8180290B1D4F8140268B9FA
:103480000120C4F81402B4F8100283B28121284646
:10349000D4F8082200F021FD002070BD0120FCE7D7
:1034A0000220FAE770B504460D46D4F81402294606
:1034B000426820469047002070BD70B504460D4616
:1034C00094F8FC01022802D0032811D100E000BFCB
:1034D000688801280BD10020C4F80402D4F8140233
:1034E0002946826820469047204600F05EF804E0B6
:1034F0002946204600F01BF800BF00BF70BD70B524
:1035000006460C4615462B4622460021304600F062
:10351000D2FB002070BD70B506460C4615462B4602
:1035200022460021304600F0D8FC002070BD70B566
:1035300004460D468021204600F085FC00212046EF
:1035400000F081FC70BD70B504460E4615460320A0
:10355000C4F8F4014FF484700551001D05512B4649
:1035600032460021204600F0A6FB002070BD10B5B9
:1035700004460520C4F8F40100231A4619462046E3
:1035800000F099FB002010BD70B504460E461546AC
:103590000220C4F8F401A561E5612B463246002102
:1035A000204600F09AFC002070BD10B504460420AF
:1035B000C4F8F40100231A461946204600F08DFC99
:1035C000002010BD70B505460C462DB922460649AF
:1035D00006A000F087F904E02246034903A000F0AA
:1035E00081F9014870BD0000380D0020434443209C
:1035F000436F6E666967000002461220088001482A
:10360000704700007400002070B505460C462DB9C7
:103610002246064906A000F065F904E02246034967
:1036200003A000F05FF9014870BD0000380D0020D4
:1036300043444320496E746572666163650000000F
:1036400002460420088001487047000088000020DE
:1036500070B505460C462246024903A000F042F927
:10366000004870BD380D002053544D6963726F657A
:103670006C656374726F6E696373000070B50546A4
:103680000C462DB92246064906A000F02BF904E0AD
:103690002246034903A000F025F9014870BD00004F
:1036A000380D002053544D333220566972747561C1
:1036B0006C20436F6D506F727400000070B505464A
:1036C0000C462DB92246064906A000F00BF904E08D
:1036D0002246034903A000F005F9014870BD00002F
:1036E000380D002030303030303030303030314123
:1036F0000000000070B504460D46E888012804D09B
:1037000029462046FFF713FF1BE094F8FC0102282E
:1037100002D003280FD108E00020A060012204F1AC
:1037200008012046FFF730FF0AE00122211D204654
:10373000FFF72AFF04E029462046FFF7F8FE00BF06
:1037400000BF70BDF8B504460E4670880012082808
:103750007FD2DFE800F07E040C207E7E5F6D207C4F
:10376000D4F810120A6869469047054676E0207C36
:1037700040B9D4F81402816A684688470546022198
:10378000697007E0D4F81402C16A684688470546A4
:103790000221697062E0B078062834D2DFE800F0D8
:1037A000030B131B232B207CD4F810124A686946A4
:1037B000904705462CE0207CD4F810128A686946B0
:1037C0009047054624E0207CD4F81012CA68694668
:1037D000904705461CE0207CD4F810120A6969461F
:1037E0009047054614E0207CD4F810124A696946D7
:1037F000904705460CE0207CD4F810128A6969468F
:103800009047054604E031462046FFF790FEF8BD9C
:1038100000BF23E0207C30B9D4F81402416B684625
:10382000884705461AE031462046FFF780FEEEE75E
:10383000207C48B9D4F81402016B684688470546D5
:10384000072169700AE004E031462046FFF76FFE69
:10385000DDE731462046FFF76AFED8E700BFBDF836
:10386000000088B1F08878B1F088BDF80010884277
:1038700002DDBDF8000000E0F0880090BDF80020F7
:1038800029462046FFF780FE00BFC0E70146002022
:1038900002E0421CD0B2491C0A78002AF9D17047D4
:1038A00070B504460D4694F8FC01022802D00328A6
:1038B00011D100E000BF0120E060D4F8040218B18B
:1038C000E06840F00200E060022204F10C012046B2
:1038D000FFF75AFE04E029462046FFF728FE00BF06
:1038E00000BF70BD2DE9F04104460D461746002685
:1038F000FCB12046FFF7CAFF022101EB40003880EF
:103900003A783046711CCEB22A5403223046711CDC
:10391000CEB22A540AE014F8012B3046711CCEB204
:103920002A5400223046711CCEB22A542078002836
:10393000F1D1BDE8F081000070B504460D46164691
:1039400054B90EA001F0A2FA0EA001F09FFA13A044
:1039500001F09CFA022070BDD4F8140210B10020CE
:10396000C4F814020DB1C4F81052012084F8FC010F
:103970002670204600F012F90020ECE74552524F25
:10398000523A2000496E76616C696420446576691C
:1039900063652068616E646C650000000A000000C9
:1039A0002DE9F04104460D46002600272946D4F8AB
:1039B0002002FDF771FC064636B1012E06D0022E1C
:1039C00006D0032E08D105E0002707E0022705E016
:1039D000012703E0022701E0022700BF00BF3846AD
:1039E000BDE8F0812DE9F04104460D460026002790
:1039F0002946D4F82002FDF71DFC064636B1012EFB
:103A000006D0022E06D0032E08D105E0002707E0DD
:103A1000022705E0012703E0022701E0022700BF9B
:103A200000BF3846BDE8F0812DE9F04104460E465E
:103A30001746002E54D104F11405D4F8F4010228DD
:103A400043D1D5E90201884210D9D5E90201401AD3
:103A5000A860288982B239462046FFF75CFD002322
:103A60001A461946204600F026F92EE0E9686868F3
:103A7000B0FBF1F201FB1200B8B9E968686888424E
:103A800013D36868D4F8F81188420ED20022114688
:103A90002046FFF740FD0020C4F8F80100231A4635
:103AA0001946204600F007F90FE0D4F81402C06868
:103AB00040B194F8FC01032804D1D4F81402C16881
:103AC000204688472046FFF752FD94F8000201285F
:103AD00014D1204600F06CFA002084F800020DE0BA
:103AE000D4F81402406948B194F8FC01032805D1C8
:103AF000D4F8140231464269204690470020BDE8C0
:103B0000F0812DE9F04105460E4617465EBB05F5EE
:103B10008274D5F8F401032833D1D4E90201884234
:103B200010D9D4E90201401AA060D4E90201884208
:103B300001D2A06800E0E06882B239462846FFF76B
:103B4000DEFC1EE0D5F81402006940B195F8FC01D6
:103B5000032804D1D5F8140201692846884728466D
:103B6000FFF723FD0DE0D5F81402806948B195F800
:103B7000FC01032805D1D5F8140231468269284694
:103B800090470020BDE8F08170B504460D462946F7
:103B9000D4F82002FDF7B1FB70BD000010B504465B
:103BA0001E48C0F85C44C4F820021D481B49086048
:103BB000082048600221194881600321C16000216A
:103BC0008161C1610162FDF715FD08B1FCF717FCC9
:103BD00004F508741823002211462068FDF7EEFA58
:103BE0005823002280212068FDF7E8FAC023002234
:103BF00081212068FDF7E2FA4FF488730022012149
:103C00002068FDF7DBFA2068A4F508744FF4807390
:103C100000228221FDF7D2FA002010BD08170020F3
:103C2000005C004010B50246D2F8203201F080005E
:103C3000802807D101F07F0403F1280000EB441035
:103C4000807810BD01F07F0403F50A7000EB44108A
:103C50008078F6E72DE9F04704460F4615461E46E4
:103C60004FF00008C1462B4632463946D4F82002B0
:103C7000FDF74DFB8046B8F1000F09D0B8F1010FF8
:103C800009D0B8F1020F09D0B8F1030F0CD108E048
:103C90004FF000090BE04FF0020908E04FF0010976
:103CA00005E04FF0020902E04FF0020900BF00BF3B
:103CB0004846BDE8F0872DE9F04704460D46164614
:103CC0001F464FF00008C1463B4632462946D4F80D
:103CD0002002FDF757FB8046B8F1000F09D0B8F17C
:103CE000010F09D0B8F1020F09D0B8F1030F0CD1C0
:103CF00008E04FF000090BE04FF0020908E04FF038
:103D0000010905E04FF0020902E04FF0020900BF8F
:103D100000BF4846BDE8F08710B5044640230022A6
:103D200011462046FFF796FF40214FF4887001515D
:103D30004023002280212046FFF78CFF4021216292
:103D4000012084F8FC01D4F8180228B12179D4F8B4
:103D50001402426820469047002010BD014691F8A9
:103D6000FD0181F8FC010020704710B5044694F86D
:103D7000FC01032808D1D4F81402C06920B1D4F89A
:103D80001402C16920468847002010BD0246117404
:103D9000002070472DE9F04104460D46002600271B
:103DA0002946D4F82002FDF7F8FC064636B1012E6C
:103DB00006D0022E06D0032E08D105E0002707E02A
:103DC000022705E0012703E0022701E0022700BFE8
:103DD00000BF3846BDE8F08170B504460D4629465F
:103DE00004F5027000F0AAF80120C4F8F40140F2D2
:103DF0000E20005BC4F8F80194F8080200F01F00E0
:103E000020B1012808D0022812D10BE004F502717C
:103E1000204600F094F913E004F50271204600F00A
:103E200072FA0DE004F50271204600F0C1F907E0D6
:103E300094F8080200F08001204600F004F800BF6A
:103E400000BF002070BD2DE9F04104460D4600265C
:103E500000272946D4F82002FDF7B9FA064636B104
:103E6000012E06D0022E06D0032E08D105E0002731
:103E700007E0022705E0012703E0022701E002270F
:103E800000BF00BF3846BDE8F08170B5044600258C
:103E90000026D4F82002FDF7A4FC054635B1012D1B
:103EA00006D0022D06D0032D08D105E0002607E03C
:103EB000022605E0012603E0022601E0022600BFFB
:103EC00000BF304670BD014691F8FC0181F8FD014C
:103ED000042081F8FC01002070472DE9F0470446DA
:103EE0000D4616461F464FF00008C1463B46324677
:103EF0002946D4F82002FDF7A3FA8046B8F1000F56
:103F000009D0B8F1010F09D0B8F1020F09D0B8F10A
:103F1000030F0CD108E04FF000090BE04FF002094D
:103F200008E04FF0010905E04FF0020902E04FF010
:103F3000020900BF00BF4846BDE8F0870A7802705A
:103F40004A7842708B78CA7803EB022242800B7960
:103F50004A7903EB022282808B79CA7903EB022231
:103F6000C280704770B505460C46002614B1C5F8EE
:103F7000144209E005A000F089FF06A000F086FFCA
:103F80000AA000F083FF0226304670BD4552524F12
:103F9000523A2000496E76616C696420436C61730B
:103FA000732068616E646C65000000000A00000008
:103FB00001460020704770B504460D46A888F8B940
:103FC000E888E8B9A87800F07F0694F8FC01032897
:103FD00004D129462046FFF7AAFA15E084F8FE61CD
:103FE00031462046FFF7D6FE2046FFF7DEFA1EB127
:103FF000022084F8FC0107E0012084F8FC0103E0C2
:1040000029462046FFF793FA70BD70B504460D4669
:104010000226D4F8140238B1D4F8140229460268F2
:104020002046904700B90026304670BD70B5044662
:104030000D46A8783449087008460078012804DD48
:1040400029462046FFF773FA5BE094F8FC0102284A
:1040500002D003284FD11CE02B480078A8B12A4891
:1040600000786060032084F8FC012748017820462E
:10407000FFF7CBFF022804D129462046FFF757FA65
:1040800070BD2046FFF791FA02E02046FFF78DFA57
:1040900036E01D48007870B9022084F8FC011A4807
:1040A00000786060184801782046FFF7FBF9204649
:1040B000FFF77BFA1EE0144909786068884216D041
:1040C00021792046FFF7EEF90F48007860600E482E
:1040D00001782046FFF799FF022804D1294620469F
:1040E000FFF725FACCE72046FFF75FFA02E020460B
:1040F000FFF75BFA04E029462046FFF718FA00BFF5
:1041000000BF00BFBCE700000C01002070B50446F2
:104110000D46688801280AD1C4F80402D4F81402B4
:1041200029468268204690472046FFF73EFA70BD38
:1041300010B504462046FFF7A8FE002010BD70B55C
:1041400005460C46002660780A2829D2DFE800F0F0
:104150001923281E280A0528140F21462846FFF790
:10416000F1FA22E021462846FFF725FF1DE021460F
:104170002846FFF75BFF18E021462846FFF7BAFA0A
:1041800013E021462846FFF78BFB0EE02146284628
:10419000FFF7BCFF09E021462846FFF78EF904E04F
:1041A00021462846FFF7C3F900BF00BF304670BD67
:1041B0002DE9F04105460E464FF00008347930787D
:1041C00000F06000202808D1D5F81402314682683A
:1041D000284690470020BDE8F0817078002855D02F
:1041E00001282AD003287AD195F8FC01022802D0B0
:1041F00003281BD107E02CB1802C03D02146284690
:10420000FFF721FE17E0708830B92CB1802C03D065
:1042100021462846FFF717FED5F81402314682687A
:10422000284690472846FFF7C0F904E03146284663
:10423000FFF77DF900BF00BF62E095F8FC0102289E
:1042400002D003281BD107E02CB1802C03D02146DB
:104250002846FFF7F8FD17E0708878B904F07F0072
:1042600048B121462846FFF79BFBD5F8140231469A
:104270008268284690472846FFF797F904E03146C0
:104280002846FFF754F900BF00BF39E095F8FC015C
:10429000022802D003282BD107E004F07F0018B1D8
:1042A00021462846FFF7CFFD27E004F08000802854
:1042B00006D104F07F0105F1140000EB011005E0C8
:1042C00004F07F0105F5827000EB011007462146DE
:1042D0002846FFF7A7FC18B10120386002E00EE085
:1042E00000203860022239462846FFF74DF904E0E5
:1042F00031462846FFF71BF900BF00BF00E000BFB2
:1043000000BF404667E770B504460D46002694F8A6
:10431000FC01032814D1287901280CDCD4F81402FC
:104320002946826820469047E88840B93EB9204631
:10433000FFF73BF903E029462046FFF7F8F804E0D1
:1043400029462046FFF7F3F800BF00BF002070BDEC
:10435000704700000146014870470000681B0020BC
:1043600010B50246C87830B101282CD0022810D0F0
:10437000032836D119E00878400032F8100048F6DA
:104380008F13184040F400700B785B0022F8130084
:1043900028E00878400032F8100048F68F131840E3
:1043A0000B785B0022F813001CE00878400032F81C
:1043B000100048F68F13184040F4C0600B785B0083
:1043C00022F813000EE00878400032F8100048F69A
:1043D0008F13184040F480600B785B0022F81300C4
:1043E00000E000BF00BF0878400032F8100048F637
:1043F0008F73184048F2800318430B7818435B0012
:1044000022F81300887A00287DD1487898B38888EC
:1044100040104400B2F85030087803EBC00002F5B9
:10442000806343F810400878400032F8100000F034
:10443000400068B10878400032F8100048F68F73E9
:10444000184048F2C00318430B785B0022F81300B1
:104450000B785B0032F8133048F6BF7403EA0400AF
:1044600080F0200040F4004343F080030C786400A7
:1044700022F8143047E1FFE7888840104400B2F882
:104480005030087803EBC000001D02F5806343F84C
:104490001040B2F85040087804EBC000801D1C4664
:1044A00004EB40030C693E2C10D90C69C4F34F1087
:1044B0000C7C04F01F040CB9441EA0B24FF6FF742C
:1044C00004EA802444F400441C600DE00C69C4F349
:1044D0004F000C7C04F001040CB1441CA0B24FF658
:1044E000FF7404EA80241C600878400032F8100051
:1044F00000F4804078B10878400032F8100048F6A7
:104500008F73184000E01BE04CF2800318430B78D7
:104510005B0022F813000B785B0032F813304BF687
:104520008F7403EA040080F4805080F4005040F45B
:10453000004343F080030C78640022F81430E2E07A
:104540000878400032F8100040F4807048F68F730D
:10455000184048F2800318430B785B0022F81300E0
:10456000C88840104400B2F85030087803EBC0000F
:1045700002F5806343F81040088940104400B2F807
:104580005030087803EBC000001D02F5806343F84B
:1045900010404878F0BB0878400032F8100000F472
:1045A000804068B10878400032F8100048F68F73F8
:1045B00018404CF2800318430B785B0022F813007C
:1045C0000878400032F8100000F0400068B1087828
:1045D000400032F8100048F68F73184048F2C003CC
:1045E00018430B785B0022F813000878400032F87B
:1045F000100048F68F73184048F2C00318430B7838
:104600005B0022F813000B785B0032F813304BF696
:104610008F7400E01EE003EA040080F4805080F410
:10462000005040F4004343F080030C78640022F80B
:1046300014300B785B0032F8133048F6BF7403EA8D
:10464000040040F4004343F080030C78640022F837
:10465000143058E00878400032F8100000F4804030
:1046600068B10878400032F8100048F68F7318409F
:104670004CF2800318430B785B0022F81300087893
:10468000400032F8100000F0400068B108784000A7
:1046900032F8100048F68F73184048F2C0031843F0
:1046A0000B785B0022F813000878400032F8100005
:1046B00048F68F7318404CF2800318430B785B0068
:1046C00022F813000B785B0032F8133048F6BF7401
:1046D00003EA040040F4004343F080030C786400D4
:1046E00022F814300B785B0032F813304BF68F74DD
:1046F00003EA040040F4004343F080030C786400B4
:1047000022F8143000BF002010BD10B50446002070
:1047100010BD10B50246887A00284DD1487828B3DC
:104720000878400032F8100000F0400068B10878C6
:10473000400032F8100048F68F73184048F2C0036A
:1047400018430B785B0022F813000B785B0032F8FB
:10475000133048F6BF7403EA040040F4004343F00A
:1047600080030C78640022F81430DAE00878400006
:1047700032F8100000F4804068B10878400032F848
:10478000100048F68F7318404CF2800318430B78E2
:104790005B0022F813000B785B0032F813304BF605
:1047A0008F7403EA040040F4004343F080030C7864
:1047B000640022F81430B4E04878002858D1087812
:1047C000400032F8100000F4804068B108784000E2
:1047D00032F8100048F68F7318404CF280031843EB
:1047E0000B785B0022F813000878400032F81000C4
:1047F00000F0400068B10878400032F8100048F638
:104800008F73184048F2C00318430B785B0022F8FE
:1048100013000878400032F8100048F68F731840F3
:1048200048F2C00318430B785B0022F813000B78A2
:104830005B0032F813304BF68F7403EA040040F447
:10484000004343F080030C78640022F814300B78A6
:104850005B0032F8133048F6BF7403EA040040F4FA
:10486000004343F080030C78640022F8143058E0D1
:104870000878400032F8100000F4804068B10878F1
:10488000400032F8100048F68F7318404CF2800355
:1048900018430B785B0022F813000878400032F8C8
:1048A000100000F0400068B10878400032F81000B5
:1048B00048F68F73184048F2C00318430B785B002A
:1048C00022F813000878400032F8100048F68F7381
:1048D00018404CF2800318430B785B0022F8130059
:1048E0000B785B0032F8133048F6BF7403EA04001B
:1048F00040F4004343F080030C78640022F8143045
:104900000B785B0032F813304BF68F7403EA040027
:1049100040F4004343F080030C78640022F8143024
:1049200000BF002010BD0146002070470146002056
:10493000704710B50446012024F8400F0020208065
:10494000A0802082403C204600F046FA002010BDA6
:10495000014600224FF43D42B1F840009043A1F8D7
:1049600040000020704702460020704710B5024604
:10497000487848B30878400032F8100000F0400052
:1049800068B10878400032F8100048F68F7318407C
:1049900048F2C00318430B785B0022F813000B7831
:1049A0005B0032F8133048F6BF7403EA040080F06D
:1049B000100080F0200040F4004343F080030C78A6
:1049C000640022F8143029E00878400032F8100022
:1049D00000F4804068B10878400032F8100048F6D2
:1049E0008F7318404CF2800318430B785B0022F859
:1049F00013000B785B0032F813304BF68F7403EA28
:104A0000040080F4805080F4005040F4004343F0F0
:104A100080030C78640022F8143000BF002010BD21
:104A200010B502460878A0B90B785B0032F8133055
:104A30004BF6BF7403EA040080F4805080F010004D
:104A400040F4004343F080030C78640022F81430F3
:104A500027E0487890B10B785B0032F8133048F6C5
:104A6000BF7403EA040080F0100040F4004343F0F8
:104A700080030C78640022F8143012E00B785B009D
:104A800032F813304BF68F7403EA040080F4805040
:104A900040F4004343F080030C78640022F81430A3
:104AA00000BF002010BDF0B506460C460027A569E2
:104AB000607801287CD12169A069884204D92569E0
:104AC000A069401BA06102E0A5690020A061A07A56
:104AD00080B9ABB2A2883046616900F0B4F9B6F88B
:104AE0005010207801EBC000801C06F5806141F871
:104AF0001050A1E02078400036F8100000F040008F
:104B0000C0B3607838BBB6F85020207802EBC00004
:104B1000801D06F5806202EB40013E2D0ED9C5F3E3
:104B20004F1005F01F020AB9421E90B24FF6FF72F5
:104B300002EA802242F400420A600BE0C5F34F0013
:104B400005F001020AB1421C90B24FF6FF7202EA70
:104B500080220A600CE06078012809D1B6F8501074
:104B6000207801EBC000801C06F5806141F81050F0
:104B7000278939E0FFE7607840BBB6F850202078FD
:104B800002EBC000801C06F5806202EB40013E2D66
:104B90000FD9C5F34F1005F01F020AB9421E90B29B
:104BA0004FF6FF7202EA802242F400420A600CE0F3
:104BB00057E0C5F34F0005F001020AB1421C90B264
:104BC0004FF6FF7202EA80220A600CE0607801284A
:104BD00009D1B6F85010207801EBC000801C06F512
:104BE000806141F81050E788ABB23A4630466169BF
:104BF00000F029F9607870B92078400036F810008C
:104C000048F68F71084048F2C001084321784900F6
:104C100026F8110010E0607801280DD120784000BE
:104C200036F8100048F68F7108404CF280010843B6
:104C30002178490026F811002178490036F8111032
:104C400048F6BF7201EA020080F0100080F02000F8
:104C500040F4004141F080012278520026F8121001
:104C6000B8E02169A069884204D92569A069401B80
:104C7000A06102E0A5690020A061A07A38BBB6F867
:104C80005020207802EBC000801D06F5806202EB08
:104C900040013E2D0ED9C5F34F1005F01F020AB991
:104CA000421E90B24FF6FF7202EA802242F40042A6
:104CB0000A600BE0C5F34F0005F001020AB1421C87
:104CC00090B24FF6FF7202EA80220A606DE06078CF
:104CD00038BBB6F85020207802EBC000801C06F5E7
:104CE000806202EB40013E2D0ED9C5F34F1005F056
:104CF0001F020AB9421E90B24FF6FF7202EA8022EA
:104D000042F400420A600BE0C5F34F0005F00102D7
:104D10000AB1421C90B24FF6FF7202EA80220A608A
:104D20000CE06078012809D1B6F85010207801EB2A
:104D3000C000801C06F5806141F81050607838BBD7
:104D4000B6F85020207802EBC000801D06F5806286
:104D500002EB40013E2D0ED9C5F34F1005F01F02A6
:104D60000AB9421E90B24FF6FF7202EA802242F464
:104D700000420A600BE0C5F34F0005F001020AB1E2
:104D8000421C90B24FF6FF7202EA80220A600CE0E9
:104D90006078012809D1B6F85010207801EBC000E6
:104DA000801C06F5806141F810502178490036F8E2
:104DB00011104BF68F7201EA020080F4805080F4EB
:104DC000005040F4004141F080012278520026F862
:104DD000121000BF0020F0BD014600224FF43F42F8
:104DE000B1F840001043A1F84000002070470000D7
:104DF00010B50248FCF74AFB10BD00000817002060
:104E000001460020B1F844007047F0B55F1C7E10E9
:104E10000024002500EB420707F58065344605E0D5
:104E200035F804CB21F801CB491C641E002CF7D1C6
:104E3000F0BD024600207047024611B98020A2F85A
:104E40004C00002070472DE9F041044603F10108B1
:104E50004FEA68070025AC460026002004EB420814
:104E600008F580603D460BE091F800C0491C91F8C0
:104E700000804CEA082620F8026B801C491C6D1E3D
:104E8000002DF1D1BDE8F08100BFFEE70FB4054B66
:104E900010B503A9044A029800F018F810BC5DF898
:104EA00014FB0000115400082002002002E008C892
:104EB000121F08C1002AFAD170477047002001E094
:104EC00001C1121F002AFBD1704700002DE9FF4FDE
:104ED0008DB00F460546002606E025280BD0DDE9FB
:104EE0000F1290476D1C761C28780028F5D111B060
:104EF0003046BDE8F08F0024A246A1460122EC49CD
:104F000000E0044315F8013F203B02FA03F0084299
:104F1000F7D128782A2810D06FF02F022878A0F136
:104F20003001092914D80AEB8A0102EB410144F04F
:104F3000020400EB010A6D1CF0E701CF5FEA000AF2
:104F400003D544F40054CAF1000A44F002046D1C75
:104F500028782E2817D115F8010F44F004042A28C8
:104F60000ED06FF02F022878A0F1300109290AD85D
:104F700009EB890102EB410100EB01096D1CF2E72D
:104F800057F8049B6D1C28786C280FD006DC4C2841
:104F900017D068280DD06A2814D104E0742810D0E6
:104FA0007A280FD10DE044F400140AE044F4801490
:104FB00001E044F440146978814202D104F5801480
:104FC0006D1C6D1C2A786E2A1FD00CDC632A31D030
:104FD00004DC002A8BD0582A11D1A3E0642A68D0BF
:104FE000692A0CD165E0732A2ED004DC6F2A73D0B5
:104FF000702A04D19BE0752A6FD0782A6ED01046B3
:10500000DDE90F129047761C50E1C4F302500228EC
:1050100006D0032809D0042801CF09D0066045E155
:1050200001CFF117C0E9006140E101CF06803DE109
:1050300006703BE117F8040B8DF8000000208DF896
:105040000100EB46012003E057F804BB4FF0FF30AE
:1050500061074FF0000102D40DE008F1010188461C
:1050600049450FDA8045F8DB1BF808100029F4D118
:1050700008E008F1010188468142FADB1BF80810BC
:105080000029F6D1DDE90F23AAEB0800814621466D
:1050900000F036F9304400EB080604E0DDE90F12B9
:1050A0001BF8010B9047B8F10108F7D2214648469A
:1050B000F7E00A21C4F302534FF0000B0891022BD2
:1050C00004D001CFC117032B09D00AE0FF1D27F040
:1050D0000707F7E8020108E032E01FE020E000B235
:1050E000C117042B01D140B2C117031E71F1000397
:1050F00007DA4FF0000CD0EB0C006CEB01012D2314
:1051000002E0230504D52B238DF82430012303E08E
:10511000E30701D02023F7E7984658E00A2110E082
:1051200010210EE010204FF0000B08900CE0102131
:105130004FF0000B44F004044FF00809089103E01D
:1051400008214FF0000B0891C4F30253022B04D046
:1051500001CF0021032B06D006E0FF1D27F0070733
:10516000F7E8020103E080B2042B00D1C0B24FF097
:10517000000823072BD5702A07D0DDF820C08CF05B
:10518000100C5CEA0B0C05D00EE040238DF82430A7
:10519000012308E050EA010306D030238DF82430C3
:1051A0008DF8252002239846DDF820C08CF0080CED
:1051B0005CEA0B0C0BD150EA010301D1630706D561
:1051C00030238DF824304FF00108A9F10109582A45
:1051D00004D038A20B9208AA0A920BE03AA2F9E78F
:1051E0005B46089AFBF74CF80B9B9B5C0A9A521E95
:1051F0000A92137050EA0102F2D10A98ADEB000056
:1052000000F1200B600702D524F4803401E04FF058
:105210000109D94502DDA9EB0B0000E0002000EBFD
:105220000B0141440890AAEB010AE00306D4DDE932
:105230000F232146504600F063F806444FF0000962
:1052400008E009A911F80900DDE90F12904709F1FA
:105250000109761CC145F4DBE0030CD5DDE90F2321
:105260002146504600F04CF8064404E0DDE90F12F8
:1052700030209047761C0899481E08900029F5DCDC
:1052800008E00A980A990078491C0A91DDE90F1292
:105290009047761CBBF10001ABF1010BF1DC21461C
:1052A0005046DDE90F2300F019F806446D1C1BE69B
:1052B00009280100303132333435363738396162EC
:1052C00063646566000000003031323334353637B0
:1052D0003839414243444546000000002DE9F04181
:1052E000044600251E461746880404D405E03946C6
:1052F0002020B0476D1C641EF9D52846BDE8F0811A
:105300002DE9F041044600251E469046C80301D50C
:10531000302700E02027880404D505E041463846C0
:10532000B0476D1C641EF9D52846BDE8F081000029
:105330004FF0FF3004490860014603488038C0F848
:105340008410C0F88810704780E100E010B58BB081
:10535000144C1548C0680090134800690190124829
:10536000406902901048806903900F48C06904901A
:105370000D48006A05900C48406A06900A48806A09
:1053800007900948C06A08900748006B09900648D2
:10539000406B0A900B222146684600F04AFB0BB096
:1053A00010BD0000DC0A00202000002010B5094AD2
:1053B0003C2900D910BD002304E010F8014B02F88D
:1053C000014B5B1C8B42F8D30123034C236000BFCD
:1053D000F0E700009C0A00200400002070B504469D
:1053E0000D46FFF7B3FF10E0E1B2032000F084FEAA
:1053F00058B9642000F028FB0921032000F07CFE4E
:1054000018B9642000F020FB00E0EDE700BF70BD9C
:1054100010B50A4601460B4B1B6803F001037BB134
:10542000084B803B1B6803F001034BB100E000BF59
:105430004FF060431B68002BF9D04FF0604421709F
:1054400000BF10BD800E00E010B5B54800681128FF
:105450002CD2DFE800F0092B2B2B2B732BC82BD67B
:10546000F9F62BF52CB9F4002121032000F044FEBD
:10547000AC480068002819D000F022FEAA48007845
:1054800003280BD1A8484078012807D10E20A44951
:10549000086000BFA5A0FFF7F9FC07E000BFAAA0C5
:1054A000FFF7F4FC00BFF920B049086327E100BF13
:1054B000AFA0FFF7EBFC00BFFBF7B2FB0446002CEC
:1054C00032D100BFABA0FFF7E1FC00BFAA48806863
:1054D000A6494861A949A848FBF7D0FA0446D4B9BF
:1054E00000BFA7A0FFF7D2FC00BFA34880689F4978
:1054F000C8610221032000F0FFFD38B9052088496A
:10550000086000BF9FA0FFF7C1FC16E000BFA7A086
:10551000FFF7BCFC11E000BFA5A0FFF7B7FC00BF80
:10552000FD2092490863ECE000BFA2A0FFF7AEFCAB
:1055300000BFFB208D490863E3E0E0E079480068A4
:10554000002840D000F0BCFD77480078032825D122
:1055500075484078032821D101F002F8044654B977
:105560000F206F49086000BF6F48416892A0FFF7A5
:105570008DFC00BF29E0062C05D17C48406A401C08
:105580007A49486221E0FE207849086300BF6648F6
:10559000416894A0FFF77AFC00BFB2E0624800784F
:1055A000032807D160484078052803D107205C49CB
:1055B000086008E000BF98A0FFF768FC00BFF92072
:1055C0006A4908639DE09AE000BF00BF93A0FFF71F
:1055D0005DFC00BF0421032000F08EFD10B9052002
:1055E0004F4908608BE00621032000F085FD38B9A3
:1055F00000BF91A0FFF74AFC00BF0920484908609E
:105600007DE048480068F0B100F05AFD4648007857
:1056100003280BD144484078072807D10A20404985
:10562000086000BF8AA0FFF731FC0CE000BF46A075
:10563000FFF72CFC00BFF9204C49086361E03EE015
:105640004DE022E000E05AE08849086800F038FFA9
:1056500068B90821032000F04FFDA8B900BF84A05D
:10566000FFF714FC00BF0B202D49086047E000BF86
:105670008AA0FFF70BFC00BF3C48806A401C3B49F6
:105680008862FA2008633CE039E026480068A8B147
:1056900000F016FD2448007803280BD122484078FA
:1056A0000B2807D110201E49086000BF84A0FFF717
:1056B000EDFB03E0F9202D49086322E01FE000BF65
:1056C00085A0FFF7E3FB00BFFFF740FE0C2103209E
:1056D00000F012FD10B90D20114908600FE06420A0
:1056E00000F0B2F900BF81A0FFF7D0FB00BF00F0CF
:1056F0000FF900BF84A0FFF7C9FB00BF00BF00BFC8
:1057000010BD1A4844630020184908610449086024
:10571000164A516B106BFFF761FE00BFF0E7000007
:1057200008000020040000209C0A002053454E443D
:105730005F464C4153485F5550444154455F434F89
:105740004D4D414E440D0A004572726F723A2072FF
:1057500065636569766564206D657373616765204F
:105760006D69736D617463680D0A0000200000208C
:10577000310D0A00320D0A000C0000201C00002030
:10578000330D0A0041524D5F524543454956454449
:105790005F46555F434F4D4D454E445F4552415323
:1057A000455F414C4C5F4F4B0D0A0000340D0A0021
:1057B000350D0A00360D0A0053454E445F464C41F4
:1057C00053485550444154455F444154412C206155
:1057D00064647265737320697320307825780D0ACC
:1057E000000000004552524F523A207772697465AA
:1057F00020746F20666C6173682C2061646472652C
:105800007373206973202523303878206572726F96
:1058100072210D0A00000000370D0A0041524D5F51
:10582000444154415F57524954455F434F4D504C9A
:105830004554450D0A000000464C4153485550441C
:105840004154455F434F4D504C4554450D0A0000AF
:1058500053454E445F464C4153485F494D4147458F
:105860005F5645524946590D0A00000000D4000811
:10587000526563656976656420466C61736820498A
:105880006D61676520566572696679204E6F20509C
:10589000726F626C656D0D0A0000000052656365F1
:1058A0006976656420466C61736820496D6167653F
:1058B00020566572696679204572726F720D0A0012
:1058C00053454E445F524553544152545F434F4DEC
:1058D0004D414E440D0A000041524D5F5245535414
:1058E0004152545F4E4F570D0A0000004A554D502B
:1058F0005F544F5F555345525F4150504C494341AF
:1059000054494F4E0D0A0000776861740D0A00007B
:1059100010B51B49086800F0D3FD401C00B910BD4C
:105920001848006818490840B0F1005F20D10820ED
:105930001649086000BF16A0FFF7A8FA00BF00BF15
:105940001BA0FFF7A3FA00BF00BF11A0FFF79EFA4C
:1059500000BF1F48FAF7C2FDFCF7F4F872B6FFF774
:10596000E7FC0848026841680020FAF7EBFB00E01A
:1059700000E000BF72B601201649086000BFFEE7D4
:1059800000D4000800D000080000FE2F14140140CD
:105990002A2A2A2A2A2A2A2A2A2A2A2A2A2A2A2A67
:1059A0002A2A2A2A2A2A2A2A2A2A0D0A000000003C
:1059B0005265616479204A756D7020746F20617042
:1059C000706C69636174696F6E210D0A00000000DC
:1059D00000093D00100C014088B0FBF7EBFAFDF721
:1059E00051FAFCF755FEFCF713FEFCF7A5FFFCF798
:1059F00087FFFAF749FDFAF733FDFFF789FF1C220D
:105A0000064901A8FAF718FC002101A800F02DF8BA
:105A10000349086000F024F800BFFEE7F0690008C1
:105A20000000002001460020842901D0CA1C104437
:105A3000704710B503E050F8043941F80439131EDB
:105A4000A2F10102F7D110BD70B5044625460DB193
:105A5000294600E00121084600F05EFC002070BDF0
:105A600010B500F087FC002010BD7FB504460D4640
:105A7000606998B1A06988B1B4F90800FFF7D2FF56
:105A80000646D4E90510CDE9006102902B46226953
:105A9000D4E9001000F03EFE039013E0B4F90800D2
:105AA000FFF7C0FF064603A8CDE90060238A9AB23B
:105AB0002B46D4E9001000F0FBFD012802D00020A5
:105AC00004B070BD0398FBE72DE9F04105460E4692
:105AD0001C4807681C480068001D00F01DFB50B9F9
